:020000040800F2
:10000000FF4F0020090200085102000851020008B9
:1000100051020008510200085102000800000000CF
:100020000000000000000000000000005102000875
:1000300051020008000000005102000851020008AF
:100040005102000851020008510200085102000844
:100050005102000851020008510200085102000834
:100060005102000851020008510200085102000824
:100070005102000851020008510200085102000814
:100080005102000851020008510200085102000804
:1000900051020008510200085102000851020008F4
:1000A00051020008510200085102000851020008E4
:1000B00051020008510200085102000851020008D4
:1000C00051020008510200085102000851020008C4
:1000D00051020008510200085102000851020008B4
:1000E00051020008510200085102000800000000FF
:1000F0000000000000000000000000000000000000
:0C01000000000000000000005FF808F1A3
:10010C0010B5054C237833B9044B13B10448AFF345
:10011C0000800123237010BD0000002000000000AF
:10012C0054020008084B10B51BB108490848AFF33E
:10013C0000800848036803B910BD074B002BFBD0A7
:10014C00BDE81040184700BF00000000040000206C
:10015C005402000800000020000000000F4B1A6839
:10016C0042F001021A6059680D4A0A405A601A6836
:10017C0022F0847222F480321A601A6822F48022EF
:10018C001A605A6822F4FE025A604FF41F029A60F9
:10019C00044B4FF000629A60704700BF00100240A1
:1001AC000000FFF800ED00E070B50F4E0F4D761B10
:1001BC00B61018BF002405D0013455F8043B9847FD
:1001CC00A642F9D10A4E0B4D00F03EF8761BB61044
:1001DC0018BF002406D0013455F8043B9847A642BA
:1001EC00F9D170BD70BD00BF6C0200086C02000834
:1001FC00700200086C02000800207047002103E028
:10020C000B4B5B58435004310A480B4B42189A4233
:10021C00F6D30A4A02E0002342F8043B084B9A4208
:10022C00F9D3FFF79BFFFFF7BFFFFFF7E5FF704721
:10023C0074020008000000200000002000000020D4
:10024C001C000020FEE70000F8B500BFF8BC08BC9D
:10025C009E467047F8B500BFF8BC08BC9E46704778
:04026C003101000854
:040270000D01000874
:0400000508000209E4
:00000001FF
